{
  "_format": "hh-sol-artifact-1",
  "contractName": "JIL_Vault",
  "sourceName": "contracts/JIL_Vault.sol",
  "abi": [
    {
      "inputs": [
        {
          "internalType": "contract IERC20",
          "name": "asset_",
          "type": "address"
        },
        {
          "internalType": "string",
          "name": "name_",
          "type": "string"
        },
        {
          "internalType": "string",
          "name": "symbol_",
          "type": "string"
        }
      ],
      "stateMutability": "nonpayable",
      "type": "constructor"
    },
    {
      "inputs": [
        {
          "internalType": "address",
          "name": "spender",
          "type": "address"
        },
        {
          "internalType": "uint256",
          "name": "allowance",
          "type": "uint256"
        },
        {
          "internalType": "uint256",
          "name": "needed",
          "type": "uint256"
        }
      ],
      "name": "ERC20InsufficientAllowance",
      "type": "error"
    },
    {
      "inputs": [
        {
          "internalType": "address",
          "name": "sender",
          "type": "address"
        },
        {
          "internalType": "uint256",
          "name": "balance",
          "type": "uint256"
        },
        {
          "internalType": "uint256",
          "name": "needed",
          "type": "uint256"
        }
      ],
      "name": "ERC20InsufficientBalance",
      "type": "error"
    },
    {
      "inputs": [
        {
          "internalType": "address",
          "name": "approver",
          "type": "address"
        }
      ],
      "name": "ERC20InvalidApprover",
      "type": "error"
    },
    {
      "inputs": [
        {
          "internalType": "address",
          "name": "receiver",
          "type": "address"
        }
      ],
      "name": "ERC20InvalidReceiver",
      "type": "error"
    },
    {
      "inputs": [
        {
          "internalType": "address",
          "name": "sender",
          "type": "address"
        }
      ],
      "name": "ERC20InvalidSender",
      "type": "error"
    },
    {
      "inputs": [
        {
          "internalType": "address",
          "name": "spender",
          "type": "address"
        }
      ],
      "name": "ERC20InvalidSpender",
      "type": "error"
    },
    {
      "inputs": [
        {
          "internalType": "address",
          "name": "receiver",
          "type": "address"
        },
        {
          "internalType": "uint256",
          "name": "assets",
          "type": "uint256"
        },
        {
          "internalType": "uint256",
          "name": "max",
          "type": "uint256"
        }
      ],
      "name": "ERC4626ExceededMaxDeposit",
      "type": "error"
    },
    {
      "inputs": [
        {
          "internalType": "address",
          "name": "receiver",
          "type": "address"
        },
        {
          "internalType": "uint256",
          "name": "shares",
          "type": "uint256"
        },
        {
          "internalType": "uint256",
          "name": "max",
          "type": "uint256"
        }
      ],
      "name": "ERC4626ExceededMaxMint",
      "type": "error"
    },
    {
      "inputs": [
        {
          "internalType": "address",
          "name": "owner",
          "type": "address"
        },
        {
          "internalType": "uint256",
          "name": "shares",
          "type": "uint256"
        },
        {
          "internalType": "uint256",
          "name": "max",
          "type": "uint256"
        }
      ],
      "name": "ERC4626ExceededMaxRedeem",
      "type": "error"
    },
    {
      "inputs": [
        {
          "internalType": "address",
          "name": "owner",
          "type": "address"
        },
        {
          "internalType": "uint256",
          "name": "assets",
          "type": "uint256"
        },
        {
          "internalType": "uint256",
          "name": "max",
          "type": "uint256"
        }
      ],
      "name": "ERC4626ExceededMaxWithdraw",
      "type": "error"
    },
    {
      "inputs": [],
      "name": "EnforcedPause",
      "type": "error"
    },
    {
      "inputs": [],
      "name": "ExpectedPause",
      "type": "error"
    },
    {
      "inputs": [
        {
          "internalType": "address",
          "name": "owner",
          "type": "address"
        }
      ],
      "name": "OwnableInvalidOwner",
      "type": "error"
    },
    {
      "inputs": [
        {
          "internalType": "address",
          "name": "account",
          "type": "address"
        }
      ],
      "name": "OwnableUnauthorizedAccount",
      "type": "error"
    },
    {
      "inputs": [],
      "name": "ReentrancyGuardReentrantCall",
      "type": "error"
    },
    {
      "inputs": [
        {
          "internalType": "address",
          "name": "token",
          "type": "address"
        }
      ],
      "name": "SafeERC20FailedOperation",
      "type": "error"
    },
    {
      "anonymous": false,
      "inputs": [
        {
          "indexed": true,
          "internalType": "address",
          "name": "owner",
          "type": "address"
        },
        {
          "indexed": true,
          "internalType": "address",
          "name": "spender",
          "type": "address"
        },
        {
          "indexed": false,
          "internalType": "uint256",
          "name": "value",
          "type": "uint256"
        }
      ],
      "name": "Approval",
      "type": "event"
    },
    {
      "anonymous": false,
      "inputs": [
        {
          "indexed": true,
          "internalType": "address",
          "name": "sender",
          "type": "address"
        },
        {
          "indexed": true,
          "internalType": "address",
          "name": "owner",
          "type": "address"
        },
        {
          "indexed": false,
          "internalType": "uint256",
          "name": "assets",
          "type": "uint256"
        },
        {
          "indexed": false,
          "internalType": "uint256",
          "name": "shares",
          "type": "uint256"
        }
      ],
      "name": "Deposit",
      "type": "event"
    },
    {
      "anonymous": false,
      "inputs": [
        {
          "indexed": false,
          "internalType": "uint256",
          "name": "amount",
          "type": "uint256"
        }
      ],
      "name": "FeesCollected",
      "type": "event"
    },
    {
      "anonymous": false,
      "inputs": [
        {
          "indexed": true,
          "internalType": "address",
          "name": "previousOwner",
          "type": "address"
        },
        {
          "indexed": true,
          "internalType": "address",
          "name": "newOwner",
          "type": "address"
        }
      ],
      "name": "OwnershipTransferred",
      "type": "event"
    },
    {
      "anonymous": false,
      "inputs": [
        {
          "indexed": false,
          "internalType": "address",
          "name": "account",
          "type": "address"
        }
      ],
      "name": "Paused",
      "type": "event"
    },
    {
      "anonymous": false,
      "inputs": [
        {
          "indexed": false,
          "internalType": "uint256",
          "name": "oldFee",
          "type": "uint256"
        },
        {
          "indexed": false,
          "internalType": "uint256",
          "name": "newFee",
          "type": "uint256"
        }
      ],
      "name": "PerformanceFeeUpdated",
      "type": "event"
    },
    {
      "anonymous": false,
      "inputs": [
        {
          "indexed": true,
          "internalType": "address",
          "name": "from",
          "type": "address"
        },
        {
          "indexed": true,
          "internalType": "address",
          "name": "to",
          "type": "address"
        },
        {
          "indexed": false,
          "internalType": "uint256",
          "name": "value",
          "type": "uint256"
        }
      ],
      "name": "Transfer",
      "type": "event"
    },
    {
      "anonymous": false,
      "inputs": [
        {
          "indexed": false,
          "internalType": "address",
          "name": "account",
          "type": "address"
        }
      ],
      "name": "Unpaused",
      "type": "event"
    },
    {
      "anonymous": false,
      "inputs": [
        {
          "indexed": true,
          "internalType": "address",
          "name": "sender",
          "type": "address"
        },
        {
          "indexed": true,
          "internalType": "address",
          "name": "receiver",
          "type": "address"
        },
        {
          "indexed": true,
          "internalType": "address",
          "name": "owner",
          "type": "address"
        },
        {
          "indexed": false,
          "internalType": "uint256",
          "name": "assets",
          "type": "uint256"
        },
        {
          "indexed": false,
          "internalType": "uint256",
          "name": "shares",
          "type": "uint256"
        }
      ],
      "name": "Withdraw",
      "type": "event"
    },
    {
      "inputs": [],
      "name": "JIL",
      "outputs": [
        {
          "internalType": "address",
          "name": "",
          "type": "address"
        }
      ],
      "stateMutability": "view",
      "type": "function"
    },
    {
      "inputs": [],
      "name": "MAX_FEE",
      "outputs": [
        {
          "internalType": "uint256",
          "name": "",
          "type": "uint256"
        }
      ],
      "stateMutability": "view",
      "type": "function"
    },
    {
      "inputs": [
        {
          "internalType": "address",
          "name": "owner",
          "type": "address"
        },
        {
          "internalType": "address",
          "name": "spender",
          "type": "address"
        }
      ],
      "name": "allowance",
      "outputs": [
        {
          "internalType": "uint256",
          "name": "",
          "type": "uint256"
        }
      ],
      "stateMutability": "view",
      "type": "function"
    },
    {
      "inputs": [
        {
          "internalType": "address",
          "name": "spender",
          "type": "address"
        },
        {
          "internalType": "uint256",
          "name": "value",
          "type": "uint256"
        }
      ],
      "name": "approve",
      "outputs": [
        {
          "internalType": "bool",
          "name": "",
          "type": "bool"
        }
      ],
      "stateMutability": "nonpayable",
      "type": "function"
    },
    {
      "inputs": [],
      "name": "asset",
      "outputs": [
        {
          "internalType": "address",
          "name": "",
          "type": "address"
        }
      ],
      "stateMutability": "view",
      "type": "function"
    },
    {
      "inputs": [
        {
          "internalType": "address",
          "name": "account",
          "type": "address"
        }
      ],
      "name": "balanceOf",
      "outputs": [
        {
          "internalType": "uint256",
          "name": "",
          "type": "uint256"
        }
      ],
      "stateMutability": "view",
      "type": "function"
    },
    {
      "inputs": [],
      "name": "collectFees",
      "outputs": [],
      "stateMutability": "nonpayable",
      "type": "function"
    },
    {
      "inputs": [
        {
          "internalType": "uint256",
          "name": "shares",
          "type": "uint256"
        }
      ],
      "name": "convertToAssets",
      "outputs": [
        {
          "internalType": "uint256",
          "name": "",
          "type": "uint256"
        }
      ],
      "stateMutability": "view",
      "type": "function"
    },
    {
      "inputs": [
        {
          "internalType": "uint256",
          "name": "assets",
          "type": "uint256"
        }
      ],
      "name": "convertToShares",
      "outputs": [
        {
          "internalType": "uint256",
          "name": "",
          "type": "uint256"
        }
      ],
      "stateMutability": "view",
      "type": "function"
    },
    {
      "inputs": [],
      "name": "decimals",
      "outputs": [
        {
          "internalType": "uint8",
          "name": "",
          "type": "uint8"
        }
      ],
      "stateMutability": "view",
      "type": "function"
    },
    {
      "inputs": [
        {
          "internalType": "uint256",
          "name": "assets",
          "type": "uint256"
        },
        {
          "internalType": "address",
          "name": "receiver",
          "type": "address"
        }
      ],
      "name": "deposit",
      "outputs": [
        {
          "internalType": "uint256",
          "name": "",
          "type": "uint256"
        }
      ],
      "stateMutability": "nonpayable",
      "type": "function"
    },
    {
      "inputs": [
        {
          "internalType": "address",
          "name": "",
          "type": "address"
        }
      ],
      "name": "maxDeposit",
      "outputs": [
        {
          "internalType": "uint256",
          "name": "",
          "type": "uint256"
        }
      ],
      "stateMutability": "view",
      "type": "function"
    },
    {
      "inputs": [
        {
          "internalType": "address",
          "name": "",
          "type": "address"
        }
      ],
      "name": "maxMint",
      "outputs": [
        {
          "internalType": "uint256",
          "name": "",
          "type": "uint256"
        }
      ],
      "stateMutability": "view",
      "type": "function"
    },
    {
      "inputs": [
        {
          "internalType": "address",
          "name": "owner",
          "type": "address"
        }
      ],
      "name": "maxRedeem",
      "outputs": [
        {
          "internalType": "uint256",
          "name": "",
          "type": "uint256"
        }
      ],
      "stateMutability": "view",
      "type": "function"
    },
    {
      "inputs": [
        {
          "internalType": "address",
          "name": "owner",
          "type": "address"
        }
      ],
      "name": "maxWithdraw",
      "outputs": [
        {
          "internalType": "uint256",
          "name": "",
          "type": "uint256"
        }
      ],
      "stateMutability": "view",
      "type": "function"
    },
    {
      "inputs": [
        {
          "internalType": "uint256",
          "name": "shares",
          "type": "uint256"
        },
        {
          "internalType": "address",
          "name": "receiver",
          "type": "address"
        }
      ],
      "name": "mint",
      "outputs": [
        {
          "internalType": "uint256",
          "name": "",
          "type": "uint256"
        }
      ],
      "stateMutability": "nonpayable",
      "type": "function"
    },
    {
      "inputs": [],
      "name": "name",
      "outputs": [
        {
          "internalType": "string",
          "name": "",
          "type": "string"
        }
      ],
      "stateMutability": "view",
      "type": "function"
    },
    {
      "inputs": [],
      "name": "owner",
      "outputs": [
        {
          "internalType": "address",
          "name": "",
          "type": "address"
        }
      ],
      "stateMutability": "view",
      "type": "function"
    },
    {
      "inputs": [],
      "name": "pause",
      "outputs": [],
      "stateMutability": "nonpayable",
      "type": "function"
    },
    {
      "inputs": [],
      "name": "paused",
      "outputs": [
        {
          "internalType": "bool",
          "name": "",
          "type": "bool"
        }
      ],
      "stateMutability": "view",
      "type": "function"
    },
    {
      "inputs": [],
      "name": "performanceFee",
      "outputs": [
        {
          "internalType": "uint256",
          "name": "",
          "type": "uint256"
        }
      ],
      "stateMutability": "view",
      "type": "function"
    },
    {
      "inputs": [
        {
          "internalType": "uint256",
          "name": "assets",
          "type": "uint256"
        }
      ],
      "name": "previewDeposit",
      "outputs": [
        {
          "internalType": "uint256",
          "name": "",
          "type": "uint256"
        }
      ],
      "stateMutability": "view",
      "type": "function"
    },
    {
      "inputs": [
        {
          "internalType": "uint256",
          "name": "shares",
          "type": "uint256"
        }
      ],
      "name": "previewMint",
      "outputs": [
        {
          "internalType": "uint256",
          "name": "",
          "type": "uint256"
        }
      ],
      "stateMutability": "view",
      "type": "function"
    },
    {
      "inputs": [
        {
          "internalType": "uint256",
          "name": "shares",
          "type": "uint256"
        }
      ],
      "name": "previewRedeem",
      "outputs": [
        {
          "internalType": "uint256",
          "name": "",
          "type": "uint256"
        }
      ],
      "stateMutability": "view",
      "type": "function"
    },
    {
      "inputs": [
        {
          "internalType": "uint256",
          "name": "assets",
          "type": "uint256"
        }
      ],
      "name": "previewWithdraw",
      "outputs": [
        {
          "internalType": "uint256",
          "name": "",
          "type": "uint256"
        }
      ],
      "stateMutability": "view",
      "type": "function"
    },
    {
      "inputs": [
        {
          "internalType": "uint256",
          "name": "shares",
          "type": "uint256"
        },
        {
          "internalType": "address",
          "name": "receiver",
          "type": "address"
        },
        {
          "internalType": "address",
          "name": "owner",
          "type": "address"
        }
      ],
      "name": "redeem",
      "outputs": [
        {
          "internalType": "uint256",
          "name": "",
          "type": "uint256"
        }
      ],
      "stateMutability": "nonpayable",
      "type": "function"
    },
    {
      "inputs": [],
      "name": "renounceOwnership",
      "outputs": [],
      "stateMutability": "nonpayable",
      "type": "function"
    },
    {
      "inputs": [
        {
          "internalType": "address",
          "name": "newJIL",
          "type": "address"
        }
      ],
      "name": "setJIL",
      "outputs": [],
      "stateMutability": "nonpayable",
      "type": "function"
    },
    {
      "inputs": [
        {
          "internalType": "uint256",
          "name": "newFee",
          "type": "uint256"
        }
      ],
      "name": "setPerformanceFee",
      "outputs": [],
      "stateMutability": "nonpayable",
      "type": "function"
    },
    {
      "inputs": [],
      "name": "symbol",
      "outputs": [
        {
          "internalType": "string",
          "name": "",
          "type": "string"
        }
      ],
      "stateMutability": "view",
      "type": "function"
    },
    {
      "inputs": [],
      "name": "totalAssets",
      "outputs": [
        {
          "internalType": "uint256",
          "name": "",
          "type": "uint256"
        }
      ],
      "stateMutability": "view",
      "type": "function"
    },
    {
      "inputs": [],
      "name": "totalSupply",
      "outputs": [
        {
          "internalType": "uint256",
          "name": "",
          "type": "uint256"
        }
      ],
      "stateMutability": "view",
      "type": "function"
    },
    {
      "inputs": [
        {
          "internalType": "address",
          "name": "to",
          "type": "address"
        },
        {
          "internalType": "uint256",
          "name": "value",
          "type": "uint256"
        }
      ],
      "name": "transfer",
      "outputs": [
        {
          "internalType": "bool",
          "name": "",
          "type": "bool"
        }
      ],
      "stateMutability": "nonpayable",
      "type": "function"
    },
    {
      "inputs": [
        {
          "internalType": "address",
          "name": "from",
          "type": "address"
        },
        {
          "internalType": "address",
          "name": "to",
          "type": "address"
        },
        {
          "internalType": "uint256",
          "name": "value",
          "type": "uint256"
        }
      ],
      "name": "transferFrom",
      "outputs": [
        {
          "internalType": "bool",
          "name": "",
          "type": "bool"
        }
      ],
      "stateMutability": "nonpayable",
      "type": "function"
    },
    {
      "inputs": [
        {
          "internalType": "address",
          "name": "newOwner",
          "type": "address"
        }
      ],
      "name": "transferOwnership",
      "outputs": [],
      "stateMutability": "nonpayable",
      "type": "function"
    },
    {
      "inputs": [
        {
          "internalType": "address",
          "name": "to",
          "type": "address"
        },
        {
          "internalType": "uint256",
          "name": "amount",
          "type": "uint256"
        }
      ],
      "name": "transferasset",
      "outputs": [],
      "stateMutability": "nonpayable",
      "type": "function"
    },
    {
      "inputs": [],
      "name": "unpause",
      "outputs": [],
      "stateMutability": "nonpayable",
      "type": "function"
    },
    {
      "inputs": [
        {
          "internalType": "uint256",
          "name": "assets",
          "type": "uint256"
        },
        {
          "internalType": "address",
          "name": "receiver",
          "type": "address"
        },
        {
          "internalType": "address",
          "name": "owner",
          "type": "address"
        }
      ],
      "name": "withdraw",
      "outputs": [
        {
          "internalType": "uint256",
          "name": "",
          "type": "uint256"
        }
      ],
      "stateMutability": "nonpayable",
      "type": "function"
    }
  ],
  "bytecode": "0x60c060405234801561001057600080fd5b50604051613aa0380380613aa083398181016040528101906100329190610530565b33838383816003908161004591906107dc565b50806004908161005591906107dc565b50505060008061006a8361017560201b60201c565b915091508161007a57601261007c565b805b60ff1660a08160ff16815250508273ffffffffffffffffffffffffffffffffffffffff1660808173ffffffffffffffffffffffffffffffffffffffff168152505050505060016005819055506000600660006101000a81548160ff021916908315150217905550600073ffffffffffffffffffffffffffffffffffffffff168173ffffffffffffffffffffffffffffffffffffffff16036101555760006040517f1e4fbdf700000000000000000000000000000000000000000000000000000000815260040161014c91906108bd565b60405180910390fd5b6101648161028560201b60201c565b50606460088190555050505061098f565b6000806000808473ffffffffffffffffffffffffffffffffffffffff1660405160240160405160208183030381529060405263313ce56760e01b6020820180517bffffffffffffffffffffffffffffffffffffffffffffffffffffffff83818316178352505050506040516101ea919061091f565b600060405180830381855afa9150503d8060008114610225576040519150601f19603f3d011682016040523d82523d6000602084013e61022a565b606091505b509150915081801561023e57506020815110155b15610276576000818060200190518101906102599190610962565b905060ff801681116102745760018194509450505050610280565b505b6000809350935050505b915091565b6000600660019054906101000a900473ffffffffffffffffffffffffffffffffffffffff16905081600660016101000a81548173ffffffffffffffffffffffffffffffffffffffff021916908373ffffffffffffffffffffffffffffffffffffffff1602179055508173ffffffffffffffffffffffffffffffffffffffff168173ffffffffffffffffffffffffffffffffffffffff167f8be0079c531659141344cd1fd0a4f28419497f9722a3daafe3b4186f6b6457e060405160405180910390a35050565b6000604051905090565b600080fd5b600080fd5b600073ffffffffffffffffffffffffffffffffffffffff82169050919050565b600061038a8261035f565b9050919050565b600061039c8261037f565b9050919050565b6103ac81610391565b81146103b757600080fd5b50565b6000815190506103c9816103a3565b92915050565b600080fd5b600080fd5b6000601f19601f8301169050919050565b7f4e487b7100000000000000000000000000000000000000000000000000000000600052604160045260246000fd5b610422826103d9565b810181811067ffffffffffffffff82111715610441576104406103ea565b5b80604052505050565b600061045461034b565b90506104608282610419565b919050565b600067ffffffffffffffff8211156104805761047f6103ea565b5b610489826103d9565b9050602081019050919050565b60005b838110156104b4578082015181840152602081019050610499565b60008484015250505050565b60006104d36104ce84610465565b61044a565b9050828152602081018484840111156104ef576104ee6103d4565b5b6104fa848285610496565b509392505050565b600082601f830112610517576105166103cf565b5b81516105278482602086016104c0565b91505092915050565b60008060006060848603121561054957610548610355565b5b6000610557868287016103ba565b935050602084015167ffffffffffffffff8111156105785761057761035a565b5b61058486828701610502565b925050604084015167ffffffffffffffff8111156105a5576105a461035a565b5b6105b186828701610502565b9150509250925092565b600081519050919050565b7f4e487b7100000000000000000000000000000000000000000000000000000000600052602260045260246000fd5b6000600282049050600182168061060d57607f821691505b6020821081036106205761061f6105c6565b5b50919050565b60008190508160005260206000209050919050565b60006020601f8301049050919050565b600082821b905092915050565b6000600883026106887fffffffffffffffffffffffffffffffffffffffffffffffffffffffffffffffff8261064b565b610692868361064b565b95508019841693508086168417925050509392505050565b6000819050919050565b6000819050919050565b60006106d96106d46106cf846106aa565b6106b4565b6106aa565b9050919050565b6000819050919050565b6106f3836106be565b6107076106ff826106e0565b848454610658565b825550505050565b600090565b61071c61070f565b6107278184846106ea565b505050565b5b8181101561074b57610740600082610714565b60018101905061072d565b5050565b601f8211156107905761076181610626565b61076a8461063b565b81016020851015610779578190505b61078d6107858561063b565b83018261072c565b50505b505050565b600082821c905092915050565b60006107b360001984600802610795565b1980831691505092915050565b60006107cc83836107a2565b9150826002028217905092915050565b6107e5826105bb565b67ffffffffffffffff8111156107fe576107fd6103ea565b5b61080882546105f5565b61081382828561074f565b600060209050601f8311600181146108465760008415610834578287015190505b61083e85826107c0565b8655506108a6565b601f19841661085486610626565b60005b8281101561087c57848901518255600182019150602085019450602081019050610857565b868310156108995784890151610895601f8916826107a2565b8355505b6001600288020188555050505b505050505050565b6108b78161037f565b82525050565b60006020820190506108d260008301846108ae565b92915050565b600081519050919050565b600081905092915050565b60006108f9826108d8565b61090381856108e3565b9350610913818560208601610496565b80840191505092915050565b600061092b82846108ee565b915081905092915050565b61093f816106aa565b811461094a57600080fd5b50565b60008151905061095c81610936565b92915050565b60006020828403121561097857610977610355565b5b60006109868482850161094d565b91505092915050565b60805160a0516130de6109c2600039600061095301526000818161098501528181611bb20152611d2001526130de6000f3fe608060405234801561001057600080fd5b50600436106102325760003560e01c80638da5cb5b11610130578063ba087652116100b8578063ce96cb771161007c578063ce96cb77146106cd578063d905777e146106fd578063dd62ed3e1461072d578063ef8b30f71461075d578063f2fde38b1461078d57610232565b8063ba08765214610615578063bc063e1a14610645578063c63d75b614610663578063c6e6f59214610693578063c8796572146106c357610232565b80639ad8f92f116100ff5780639ad8f92f1461054d578063a9059cbb14610569578063af8bf4ac14610599578063b3d7f6b9146105b5578063b460af94146105e557610232565b80638da5cb5b146104c357806393b5ae07146104e157806394bf804d146104ff57806395d89b411461052f57610232565b80633f4ba83a116101be57806370897b231161018257806370897b231461044557806370a0823114610461578063715018a6146104915780638456cb591461049b57806387788782146104a557610232565b80633f4ba83a1461038d578063402d267d146103975780634cdad506146103c75780635c975abb146103f75780636e553f651461041557610232565b80630a28a477116102055780630a28a477146102d357806318160ddd1461030357806323b872dd14610321578063313ce5671461035157806338d52e0f1461036f57610232565b806301e1d1141461023757806306fdde031461025557806307a2d13a14610273578063095ea7b3146102a3575b600080fd5b61023f6107a9565b60405161024c9190612566565b60405180910390f35b61025d610831565b60405161026a9190612611565b60405180910390f35b61028d60048036038101906102889190612664565b6108c3565b60405161029a9190612566565b60405180910390f35b6102bd60048036038101906102b891906126ef565b6108d7565b6040516102ca919061274a565b60405180910390f35b6102ed60048036038101906102e89190612664565b6108fa565b6040516102fa9190612566565b60405180910390f35b61030b61090e565b6040516103189190612566565b60405180910390f35b61033b60048036038101906103369190612765565b610918565b604051610348919061274a565b60405180910390f35b610359610947565b60405161036691906127d4565b60405180910390f35b610377610981565b60405161038491906127fe565b60405180910390f35b6103956109a9565b005b6103b160048036038101906103ac9190612819565b6109bb565b6040516103be9190612566565b60405180910390f35b6103e160048036038101906103dc9190612664565b6109e5565b6040516103ee9190612566565b60405180910390f35b6103ff6109f9565b60405161040c919061274a565b60405180910390f35b61042f600480360381019061042a9190612846565b610a10565b60405161043c9190612566565b60405180910390f35b61045f600480360381019061045a9190612664565b610c2f565b005b61047b60048036038101906104769190612819565b610cc1565b6040516104889190612566565b60405180910390f35b610499610d09565b005b6104a3610d1d565b005b6104ad610d2f565b6040516104ba9190612566565b60405180910390f35b6104cb610d35565b6040516104d891906127fe565b60405180910390f35b6104e9610d5f565b6040516104f691906127fe565b60405180910390f35b61051960048036038101906105149190612846565b610d85565b6040516105269190612566565b60405180910390f35b610537610e07565b6040516105449190612611565b60405180910390f35b610567600480360381019061056291906126ef565b610e99565b005b610583600480360381019061057e91906126ef565b610f7d565b604051610590919061274a565b60405180910390f35b6105b360048036038101906105ae9190612819565b610fa0565b005b6105cf60048036038101906105ca9190612664565b610fec565b6040516105dc9190612566565b60405180910390f35b6105ff60048036038101906105fa9190612886565b611000565b60405161060c9190612566565b60405180910390f35b61062f600480360381019061062a9190612886565b611262565b60405161063c9190612566565b60405180910390f35b61064d6112e6565b60405161065a9190612566565b60405180910390f35b61067d60048036038101906106789190612819565b6112ec565b60405161068a9190612566565b60405180910390f35b6106ad60048036038101906106a89190612664565b611316565b6040516106ba9190612566565b60405180910390f35b6106cb61132a565b005b6106e760048036038101906106e29190612819565b6114df565b6040516106f49190612566565b60405180910390f35b61071760048036038101906107129190612819565b6114fb565b6040516107249190612566565b60405180910390f35b610747600480360381019061074291906128d9565b61150d565b6040516107549190612566565b60405180910390f35b61077760048036038101906107729190612664565b611594565b6040516107849190612566565b60405180910390f35b6107a760048036038101906107a29190612819565b6115a8565b005b60006107b3610981565b73ffffffffffffffffffffffffffffffffffffffff166370a08231306040518263ffffffff1660e01b81526004016107eb91906127fe565b602060405180830381865afa158015610808573d6000803e3d6000fd5b505050506040513d601f19601f8201168201806040525081019061082c919061292e565b905090565b6060600380546108409061298a565b80601f016020809104026020016040519081016040528092919081815260200182805461086c9061298a565b80156108b95780601f1061088e576101008083540402835291602001916108b9565b820191906000526020600020905b81548152906001019060200180831161089c57829003601f168201915b5050505050905090565b60006108d082600061162e565b9050919050565b6000806108e2611687565b90506108ef81858561168f565b600191505092915050565b60006109078260016116a1565b9050919050565b6000600254905090565b600080610923611687565b90506109308582856116fa565b61093b85858561178e565b60019150509392505050565b6000610951611882565b7f000000000000000000000000000000000000000000000000000000000000000061097c91906129ea565b905090565b60007f0000000000000000000000000000000000000000000000000000000000000000905090565b6109b1611887565b6109b961190e565b565b60007fffffffffffffffffffffffffffffffffffffffffffffffffffffffffffffffff9050919050565b60006109f282600061162e565b9050919050565b6000600660009054906101000a900460ff16905090565b6000610a1a611971565b610a226119b7565b60008311610a65576040517f08c379a0000000000000000000000000000000000000000000000000000000008152600401610a5c90612a6b565b60405180910390fd5b600073ffffffffffffffffffffffffffffffffffffffff168273ffffffffffffffffffffffffffffffffffffffff1603610ad4576040517f08c379a0000000000000000000000000000000000000000000000000000000008152600401610acb90612ad7565b60405180910390fd5b6000610adf84611594565b905060008111610b24576040517f08c379a0000000000000000000000000000000000000000000000000000000008152600401610b1b90612b43565b60405180910390fd5b610b2c610981565b73ffffffffffffffffffffffffffffffffffffffff166323b872dd3330876040518463ffffffff1660e01b8152600401610b6893929190612b63565b6020604051808303816000875af1158015610b87573d6000803e3d6000fd5b505050506040513d601f19601f82011682018060405250810190610bab9190612bc6565b50610bb683826119f8565b8273ffffffffffffffffffffffffffffffffffffffff163373ffffffffffffffffffffffffffffffffffffffff167fdcbc1c05240f31ff3ad067ef1ee35ce4997762752e3a095284754544f4c709d78684604051610c15929190612bf3565b60405180910390a380915050610c29611a7a565b92915050565b610c37611887565b6103e8811115610c7c576040517f08c379a0000000000000000000000000000000000000000000000000000000008152600401610c7390612c68565b60405180910390fd5b7f607b1c943753982194530bf7133a5972ea2626e028005410efa54ab20035caf860085482604051610caf929190612bf3565b60405180910390a18060088190555050565b60008060008373ffffffffffffffffffffffffffffffffffffffff1673ffffffffffffffffffffffffffffffffffffffff168152602001908152602001600020549050919050565b610d11611887565b610d1b6000611a84565b565b610d25611887565b610d2d611b4a565b565b60085481565b6000600660019054906101000a900473ffffffffffffffffffffffffffffffffffffffff16905090565b600760009054906101000a900473ffffffffffffffffffffffffffffffffffffffff1681565b600080610d91836112ec565b905080841115610ddc578284826040517f284ff667000000000000000000000000000000000000000000000000000000008152600401610dd393929190612c88565b60405180910390fd5b6000610de785610fec565b9050610dfc610df4611687565b858388611bad565b809250505092915050565b606060048054610e169061298a565b80601f0160208091040260200160405190810160405280929190818152602001828054610e429061298a565b8015610e8f5780601f10610e6457610100808354040283529160200191610e8f565b820191906000526020600020905b815481529060010190602001808311610e7257829003601f168201915b5050505050905090565b600760009054906101000a900473ffffffffffffffffffffffffffffffffffffffff1673ffffffffffffffffffffffffffffffffffffffff163373ffffffffffffffffffffffffffffffffffffffff1614610ef357600080fd5b610efb610981565b73ffffffffffffffffffffffffffffffffffffffff1663a9059cbb83836040518363ffffffff1660e01b8152600401610f35929190612cbf565b6020604051808303816000875af1158015610f54573d6000803e3d6000fd5b505050506040513d601f19601f82011682018060405250810190610f789190612bc6565b505050565b600080610f88611687565b9050610f9581858561178e565b600191505092915050565b610fa8611887565b80600760006101000a81548173ffffffffffffffffffffffffffffffffffffffff021916908373ffffffffffffffffffffffffffffffffffffffff16021790555050565b6000610ff982600161162e565b9050919050565b600061100a611971565b6110126119b7565b60008411611055576040517f08c379a000000000000000000000000000000000000000000000000000000000815260040161104c90612d34565b60405180910390fd5b600073ffffffffffffffffffffffffffffffffffffffff168373ffffffffffffffffffffffffffffffffffffffff16036110c4576040517f08c379a00000000000000000000000000000000000000000000000000000000081526004016110bb90612ad7565b60405180910390fd5b60006110cf856108fa565b90508273ffffffffffffffffffffffffffffffffffffffff163373ffffffffffffffffffffffffffffffffffffffff16146111105761110f8333836116fa565b5b61111a8382611c50565b60006127106008548761112d9190612d54565b6111379190612dc5565b9050600081876111479190612df6565b9050611151610981565b73ffffffffffffffffffffffffffffffffffffffff1663a9059cbb87836040518363ffffffff1660e01b815260040161118b929190612cbf565b6020604051808303816000875af11580156111aa573d6000803e3d6000fd5b505050506040513d601f19601f820116820180604052508101906111ce9190612bc6565b508473ffffffffffffffffffffffffffffffffffffffff168673ffffffffffffffffffffffffffffffffffffffff163373ffffffffffffffffffffffffffffffffffffffff167ffbde797d201c681b91056529119e0b02407c7bb96a4a2c75c01fc9667232c8db8a87604051611245929190612bf3565b60405180910390a482935050505061125b611a7a565b9392505050565b60008061126e836114fb565b9050808511156112b9578285826040517fb94abeec0000000000000000000000000000000000000000000000000000000081526004016112b093929190612c88565b60405180910390fd5b60006112c4866109e5565b90506112da6112d1611687565b8686848a611cd2565b80925050509392505050565b6103e881565b60007fffffffffffffffffffffffffffffffffffffffffffffffffffffffffffffffff9050919050565b60006113238260006116a1565b9050919050565b611332611887565b600061133c610981565b73ffffffffffffffffffffffffffffffffffffffff166370a08231306040518263ffffffff1660e01b815260040161137491906127fe565b602060405180830381865afa158015611391573d6000803e3d6000fd5b505050506040513d601f19601f820116820180604052508101906113b5919061292e565b905060006113c16107a9565b9050600081836113d19190612df6565b905060008111611416576040517f08c379a000000000000000000000000000000000000000000000000000000000815260040161140d90612e76565b60405180910390fd5b61141e610981565b73ffffffffffffffffffffffffffffffffffffffff1663a9059cbb611441610d35565b836040518363ffffffff1660e01b815260040161145f929190612cbf565b6020604051808303816000875af115801561147e573d6000803e3d6000fd5b505050506040513d601f19601f820116820180604052508101906114a29190612bc6565b507f860c0aa5520013080c2f65981705fcdea474d9f7c3daf954656ed5e65d692d1f816040516114d29190612566565b60405180910390a1505050565b60006114f46114ed83610cc1565b600061162e565b9050919050565b600061150682610cc1565b9050919050565b6000600160008473ffffffffffffffffffffffffffffffffffffffff1673ffffffffffffffffffffffffffffffffffffffff16815260200190815260200160002060008373ffffffffffffffffffffffffffffffffffffffff1673ffffffffffffffffffffffffffffffffffffffff16815260200190815260200160002054905092915050565b60006115a18260006116a1565b9050919050565b6115b0611887565b600073ffffffffffffffffffffffffffffffffffffffff168173ffffffffffffffffffffffffffffffffffffffff16036116225760006040517f1e4fbdf700000000000000000000000000000000000000000000000000000000815260040161161991906127fe565b60405180910390fd5b61162b81611a84565b50565b600061167f600161163d6107a9565b6116479190612e96565b61164f611882565b600a61165b9190612ffd565b61166361090e565b61166d9190612e96565b8486611dcb909392919063ffffffff16565b905092915050565b600033905090565b61169c8383836001611e1a565b505050565b60006116f26116ae611882565b600a6116ba9190612ffd565b6116c261090e565b6116cc9190612e96565b60016116d66107a9565b6116e09190612e96565b8486611dcb909392919063ffffffff16565b905092915050565b6000611706848461150d565b90507fffffffffffffffffffffffffffffffffffffffffffffffffffffffffffffffff81146117885781811015611778578281836040517ffb8f41b200000000000000000000000000000000000000000000000000000000815260040161176f93929190612c88565b60405180910390fd5b61178784848484036000611e1a565b5b50505050565b600073ffffffffffffffffffffffffffffffffffffffff168373ffffffffffffffffffffffffffffffffffffffff16036118005760006040517f96c6fd1e0000000000000000000000000000000000000000000000000000000081526004016117f791906127fe565b60405180910390fd5b600073ffffffffffffffffffffffffffffffffffffffff168273ffffffffffffffffffffffffffffffffffffffff16036118725760006040517fec442f0500000000000000000000000000000000000000000000000000000000815260040161186991906127fe565b60405180910390fd5b61187d838383611ff1565b505050565b600090565b61188f611687565b73ffffffffffffffffffffffffffffffffffffffff166118ad610d35565b73ffffffffffffffffffffffffffffffffffffffff161461190c576118d0611687565b6040517f118cdaa700000000000000000000000000000000000000000000000000000000815260040161190391906127fe565b60405180910390fd5b565b611916612216565b6000600660006101000a81548160ff0219169083151502179055507f5db9ee0a495bf2e6ff9c91a7834c1ba4fdd244a5e8aa4e537bd38aeae4b073aa61195a611687565b60405161196791906127fe565b60405180910390a1565b6002600554036119ad576040517f3ee5aeb500000000000000000000000000000000000000000000000000000000815260040160405180910390fd5b6002600581905550565b6119bf6109f9565b156119f6576040517fd93c066500000000000000000000000000000000000000000000000000000000815260040160405180910390fd5b565b600073ffffffffffffffffffffffffffffffffffffffff168273ffffffffffffffffffffffffffffffffffffffff1603611a6a5760006040517fec442f05000000000000000000000000000000000000000000000000000000008152600401611a6191906127fe565b60405180910390fd5b611a7660008383611ff1565b5050565b6001600581905550565b6000600660019054906101000a900473ffffffffffffffffffffffffffffffffffffffff16905081600660016101000a81548173ffffffffffffffffffffffffffffffffffffffff021916908373ffffffffffffffffffffffffffffffffffffffff1602179055508173ffffffffffffffffffffffffffffffffffffffff168173ffffffffffffffffffffffffffffffffffffffff167f8be0079c531659141344cd1fd0a4f28419497f9722a3daafe3b4186f6b6457e060405160405180910390a35050565b611b526119b7565b6001600660006101000a81548160ff0219169083151502179055507f62e78cea01bee320cd4e420270b5ea74000d11b0c9f74754ebdbfc544b05a258611b96611687565b604051611ba391906127fe565b60405180910390a1565b611bd97f0000000000000000000000000000000000000000000000000000000000000000853085612256565b611be383826119f8565b8273ffffffffffffffffffffffffffffffffffffffff168473ffffffffffffffffffffffffffffffffffffffff167fdcbc1c05240f31ff3ad067ef1ee35ce4997762752e3a095284754544f4c709d78484604051611c42929190612bf3565b60405180910390a350505050565b600073ffffffffffffffffffffffffffffffffffffffff168273ffffffffffffffffffffffffffffffffffffffff1603611cc25760006040517f96c6fd1e000000000000000000000000000000000000000000000000000000008152600401611cb991906127fe565b60405180910390fd5b611cce82600083611ff1565b5050565b8273ffffffffffffffffffffffffffffffffffffffff168573ffffffffffffffffffffffffffffffffffffffff1614611d1157611d108386836116fa565b5b611d1b8382611c50565b611d467f000000000000000000000000000000000000000000000000000000000000000085846122d8565b8273ffffffffffffffffffffffffffffffffffffffff168473ffffffffffffffffffffffffffffffffffffffff168673ffffffffffffffffffffffffffffffffffffffff167ffbde797d201c681b91056529119e0b02407c7bb96a4a2c75c01fc9667232c8db8585604051611dbc929190612bf3565b60405180910390a45050505050565b6000611dfb611dd983612357565b8015611df6575060008480611df157611df0612d96565b5b868809115b612385565b611e06868686612391565b611e109190612e96565b9050949350505050565b600073ffffffffffffffffffffffffffffffffffffffff168473ffffffffffffffffffffffffffffffffffffffff1603611e8c5760006040517fe602df05000000000000000000000000000000000000000000000000000000008152600401611e8391906127fe565b60405180910390fd5b600073ffffffffffffffffffffffffffffffffffffffff168373ffffffffffffffffffffffffffffffffffffffff1603611efe5760006040517f94280d62000000000000000000000000000000000000000000000000000000008152600401611ef591906127fe565b60405180910390fd5b81600160008673ffffffffffffffffffffffffffffffffffffffff1673ffffffffffffffffffffffffffffffffffffffff16815260200190815260200160002060008573ffffffffffffffffffffffffffffffffffffffff1673ffffffffffffffffffffffffffffffffffffffff168152602001908152602001600020819055508015611feb578273ffffffffffffffffffffffffffffffffffffffff168473ffffffffffffffffffffffffffffffffffffffff167f8c5be1e5ebec7d5bd14f71427d1e84f3dd0314c0f7b2291e5b200ac8c7c3b92584604051611fe29190612566565b60405180910390a35b50505050565b600073ffffffffffffffffffffffffffffffffffffffff168373ffffffffffffffffffffffffffffffffffffffff16036120435780600260008282546120379190612e96565b92505081905550612116565b60008060008573ffffffffffffffffffffffffffffffffffffffff1673ffffffffffffffffffffffffffffffffffffffff168152602001908152602001600020549050818110156120cf578381836040517fe450d38c0000000000000000000000000000000000000000000000000000000081526004016120c693929190612c88565b60405180910390fd5b8181036000808673ffffffffffffffffffffffffffffffffffffffff1673ffffffffffffffffffffffffffffffffffffffff16815260200190815260200160002081905550505b600073ffffffffffffffffffffffffffffffffffffffff168273ffffffffffffffffffffffffffffffffffffffff160361215f57806002600082825403925050819055506121ac565b806000808473ffffffffffffffffffffffffffffffffffffffff1673ffffffffffffffffffffffffffffffffffffffff168152602001908152602001600020600082825401925050819055505b8173ffffffffffffffffffffffffffffffffffffffff168373ffffffffffffffffffffffffffffffffffffffff167fddf252ad1be2c89b69c2b068fc378daa952ba7f163c4a11628f55a4df523b3ef836040516122099190612566565b60405180910390a3505050565b61221e6109f9565b612254576040517f8dfc202b00000000000000000000000000000000000000000000000000000000815260040160405180910390fd5b565b6122d2848573ffffffffffffffffffffffffffffffffffffffff166323b872dd86868660405160240161228b93929190612b63565b604051602081830303815290604052915060e01b6020820180517bffffffffffffffffffffffffffffffffffffffffffffffffffffffff838183161783525050505061247f565b50505050565b612352838473ffffffffffffffffffffffffffffffffffffffff1663a9059cbb858560405160240161230b929190612cbf565b604051602081830303815290604052915060e01b6020820180517bffffffffffffffffffffffffffffffffffffffffffffffffffffffff838183161783525050505061247f565b505050565b6000600160028360038111156123705761236f613048565b5b61237a9190613077565b60ff16149050919050565b60008115159050919050565b60008083850290506000801985870982811083820303915050600081036123cc578382816123c2576123c1612d96565b5b0492505050612478565b8084116123ec576123eb6123e66000861460126011612521565b61253b565b5b600084868809905082811182039150808303925060008560000386169050808604955080840493506001818260000304019050808302841793506000600287600302189050808702600203810290508087026002038102905080870260020381029050808702600203810290508087026002038102905080870260020381029050808502955050505050505b9392505050565b600080602060008451602086016000885af1806124a2576040513d6000823e3d81fd5b3d9250600051915050600082146124bd5760018114156124d9565b60008473ffffffffffffffffffffffffffffffffffffffff163b145b1561251b57836040517f5274afe700000000000000000000000000000000000000000000000000000000815260040161251291906127fe565b60405180910390fd5b50505050565b600061252c84612385565b82841802821890509392505050565b634e487b71600052806020526024601cfd5b6000819050919050565b6125608161254d565b82525050565b600060208201905061257b6000830184612557565b92915050565b600081519050919050565b600082825260208201905092915050565b60005b838110156125bb5780820151818401526020810190506125a0565b60008484015250505050565b6000601f19601f8301169050919050565b60006125e382612581565b6125ed818561258c565b93506125fd81856020860161259d565b612606816125c7565b840191505092915050565b6000602082019050818103600083015261262b81846125d8565b905092915050565b600080fd5b6126418161254d565b811461264c57600080fd5b50565b60008135905061265e81612638565b92915050565b60006020828403121561267a57612679612633565b5b60006126888482850161264f565b91505092915050565b600073ffffffffffffffffffffffffffffffffffffffff82169050919050565b60006126bc82612691565b9050919050565b6126cc816126b1565b81146126d757600080fd5b50565b6000813590506126e9816126c3565b92915050565b6000806040838503121561270657612705612633565b5b6000612714858286016126da565b92505060206127258582860161264f565b9150509250929050565b60008115159050919050565b6127448161272f565b82525050565b600060208201905061275f600083018461273b565b92915050565b60008060006060848603121561277e5761277d612633565b5b600061278c868287016126da565b935050602061279d868287016126da565b92505060406127ae8682870161264f565b9150509250925092565b600060ff82169050919050565b6127ce816127b8565b82525050565b60006020820190506127e960008301846127c5565b92915050565b6127f8816126b1565b82525050565b600060208201905061281360008301846127ef565b92915050565b60006020828403121561282f5761282e612633565b5b600061283d848285016126da565b91505092915050565b6000806040838503121561285d5761285c612633565b5b600061286b8582860161264f565b925050602061287c858286016126da565b9150509250929050565b60008060006060848603121561289f5761289e612633565b5b60006128ad8682870161264f565b93505060206128be868287016126da565b92505060406128cf868287016126da565b9150509250925092565b600080604083850312156128f0576128ef612633565b5b60006128fe858286016126da565b925050602061290f858286016126da565b9150509250929050565b60008151905061292881612638565b92915050565b60006020828403121561294457612943612633565b5b600061295284828501612919565b91505092915050565b7f4e487b7100000000000000000000000000000000000000000000000000000000600052602260045260246000fd5b600060028204905060018216806129a257607f821691505b6020821081036129b5576129b461295b565b5b50919050565b7f4e487b7100000000000000000000000000000000000000000000000000000000600052601160045260246000fd5b60006129f5826127b8565b9150612a00836127b8565b9250828201905060ff811115612a1957612a186129bb565b5b92915050565b7f43616e6e6f74206465706f736974203020617373657473000000000000000000600082015250565b6000612a5560178361258c565b9150612a6082612a1f565b602082019050919050565b60006020820190508181036000830152612a8481612a48565b9050919050565b7f496e76616c696420726563656976657200000000000000000000000000000000600082015250565b6000612ac160108361258c565b9150612acc82612a8b565b602082019050919050565b60006020820190508181036000830152612af081612ab4565b9050919050565b7f43616e6e6f74206d696e74203020736861726573000000000000000000000000600082015250565b6000612b2d60148361258c565b9150612b3882612af7565b602082019050919050565b60006020820190508181036000830152612b5c81612b20565b9050919050565b6000606082019050612b7860008301866127ef565b612b8560208301856127ef565b612b926040830184612557565b949350505050565b612ba38161272f565b8114612bae57600080fd5b50565b600081519050612bc081612b9a565b92915050565b600060208284031215612bdc57612bdb612633565b5b6000612bea84828501612bb1565b91505092915050565b6000604082019050612c086000830185612557565b612c156020830184612557565b9392505050565b7f46656520746f6f20686967680000000000000000000000000000000000000000600082015250565b6000612c52600c8361258c565b9150612c5d82612c1c565b602082019050919050565b60006020820190508181036000830152612c8181612c45565b9050919050565b6000606082019050612c9d60008301866127ef565b612caa6020830185612557565b612cb76040830184612557565b949350505050565b6000604082019050612cd460008301856127ef565b612ce16020830184612557565b9392505050565b7f43616e6e6f742077697468647261772030206173736574730000000000000000600082015250565b6000612d1e60188361258c565b9150612d2982612ce8565b602082019050919050565b60006020820190508181036000830152612d4d81612d11565b9050919050565b6000612d5f8261254d565b9150612d6a8361254d565b9250828202612d788161254d565b91508282048414831517612d8f57612d8e6129bb565b5b5092915050565b7f4e487b7100000000000000000000000000000000000000000000000000000000600052601260045260246000fd5b6000612dd08261254d565b9150612ddb8361254d565b925082612deb57612dea612d96565b5b828204905092915050565b6000612e018261254d565b9150612e0c8361254d565b9250828203905081811115612e2457612e236129bb565b5b92915050565b7f4e6f206665657320746f20636f6c6c6563740000000000000000000000000000600082015250565b6000612e6060128361258c565b9150612e6b82612e2a565b602082019050919050565b60006020820190508181036000830152612e8f81612e53565b9050919050565b6000612ea18261254d565b9150612eac8361254d565b9250828201905080821115612ec457612ec36129bb565b5b92915050565b60008160011c9050919050565b6000808291508390505b6001851115612f2157808604811115612efd57612efc6129bb565b5b6001851615612f0c5780820291505b8081029050612f1a85612eca565b9450612ee1565b94509492505050565b600082612f3a5760019050612ff6565b81612f485760009050612ff6565b8160018114612f5e5760028114612f6857612f97565b6001915050612ff6565b60ff841115612f7a57612f796129bb565b5b8360020a915084821115612f9157612f906129bb565b5b50612ff6565b5060208310610133831016604e8410600b8410161715612fcc5782820a905083811115612fc757612fc66129bb565b5b612ff6565b612fd98484846001612ed7565b92509050818404811115612ff057612fef6129bb565b5b81810290505b9392505050565b60006130088261254d565b9150613013836127b8565b92506130407fffffffffffffffffffffffffffffffffffffffffffffffffffffffffffffffff8484612f2a565b905092915050565b7f4e487b7100000000000000000000000000000000000000000000000000000000600052602160045260246000fd5b6000613082826127b8565b915061308d836127b8565b92508261309d5761309c612d96565b5b82820690509291505056fea2646970667358221220c5e6660a3fb87d7640101f79e0c50454d47bc77a844df715bc609931673d3cdd64736f6c634300081c0033",
  "linkReferences": {},
  "deployedLinkReferences": {}
}