{
  "_format": "hh-sol-artifact-1",
  "contractName": "CrossChainJustInLiquidity",
  "sourceName": "contracts/JUSTINLIQ.sol",
  "abi": [
    {
      "inputs": [
        {
          "internalType": "address",
          "name": "_gateway",
          "type": "address"
        }
      ],
      "stateMutability": "nonpayable",
      "type": "constructor"
    },
    {
      "inputs": [],
      "name": "EnforcedPause",
      "type": "error"
    },
    {
      "inputs": [],
      "name": "ExpectedPause",
      "type": "error"
    },
    {
      "inputs": [
        {
          "internalType": "address",
          "name": "owner",
          "type": "address"
        }
      ],
      "name": "OwnableInvalidOwner",
      "type": "error"
    },
    {
      "inputs": [
        {
          "internalType": "address",
          "name": "account",
          "type": "address"
        }
      ],
      "name": "OwnableUnauthorizedAccount",
      "type": "error"
    },
    {
      "inputs": [],
      "name": "ReentrancyGuardReentrantCall",
      "type": "error"
    },
    {
      "anonymous": false,
      "inputs": [
        {
          "indexed": true,
          "internalType": "bytes32",
          "name": "id",
          "type": "bytes32"
        },
        {
          "indexed": false,
          "internalType": "uint128",
          "name": "sourceChain",
          "type": "uint128"
        },
        {
          "indexed": true,
          "internalType": "address",
          "name": "receiver",
          "type": "address"
        },
        {
          "indexed": true,
          "internalType": "address",
          "name": "token",
          "type": "address"
        },
        {
          "indexed": false,
          "internalType": "uint256",
          "name": "amount",
          "type": "uint256"
        },
        {
          "indexed": false,
          "internalType": "uint256",
          "name": "fee",
          "type": "uint256"
        }
      ],
      "name": "CrossChainLiquidityReceived",
      "type": "event"
    },
    {
      "anonymous": false,
      "inputs": [
        {
          "indexed": false,
          "internalType": "uint16",
          "name": "destinationChain",
          "type": "uint16"
        },
        {
          "indexed": true,
          "internalType": "address",
          "name": "receiver",
          "type": "address"
        },
        {
          "indexed": true,
          "internalType": "address",
          "name": "token",
          "type": "address"
        },
        {
          "indexed": false,
          "internalType": "uint256",
          "name": "amount",
          "type": "uint256"
        },
        {
          "indexed": false,
          "internalType": "uint256",
          "name": "fee",
          "type": "uint256"
        }
      ],
      "name": "CrossChainLiquidityRequested",
      "type": "event"
    },
    {
      "anonymous": false,
      "inputs": [
        {
          "indexed": true,
          "internalType": "address",
          "name": "previousOwner",
          "type": "address"
        },
        {
          "indexed": true,
          "internalType": "address",
          "name": "newOwner",
          "type": "address"
        }
      ],
      "name": "OwnershipTransferred",
      "type": "event"
    },
    {
      "anonymous": false,
      "inputs": [
        {
          "indexed": false,
          "internalType": "address",
          "name": "account",
          "type": "address"
        }
      ],
      "name": "Paused",
      "type": "event"
    },
    {
      "anonymous": false,
      "inputs": [
        {
          "indexed": false,
          "internalType": "address",
          "name": "account",
          "type": "address"
        }
      ],
      "name": "Unpaused",
      "type": "event"
    },
    {
      "inputs": [],
      "name": "GMP_GAS_LIMIT",
      "outputs": [
        {
          "internalType": "uint256",
          "name": "",
          "type": "uint256"
        }
      ],
      "stateMutability": "view",
      "type": "function"
    },
    {
      "inputs": [],
      "name": "PROTOCOL_FEE",
      "outputs": [
        {
          "internalType": "uint256",
          "name": "",
          "type": "uint256"
        }
      ],
      "stateMutability": "view",
      "type": "function"
    },
    {
      "inputs": [],
      "name": "gateway",
      "outputs": [
        {
          "internalType": "contract IGateway",
          "name": "",
          "type": "address"
        }
      ],
      "stateMutability": "view",
      "type": "function"
    },
    {
      "inputs": [
        {
          "internalType": "address",
          "name": "token",
          "type": "address"
        },
        {
          "internalType": "uint256",
          "name": "amount",
          "type": "uint256"
        },
        {
          "internalType": "address",
          "name": "receiver",
          "type": "address"
        },
        {
          "internalType": "uint16",
          "name": "destinationChain",
          "type": "uint16"
        },
        {
          "internalType": "address",
          "name": "destinationContract",
          "type": "address"
        },
        {
          "internalType": "bytes",
          "name": "params",
          "type": "bytes"
        }
      ],
      "name": "getEncodeData",
      "outputs": [
        {
          "internalType": "bytes",
          "name": "",
          "type": "bytes"
        }
      ],
      "stateMutability": "pure",
      "type": "function"
    },
    {
      "inputs": [
        {
          "internalType": "address",
          "name": "token",
          "type": "address"
        }
      ],
      "name": "hasVault",
      "outputs": [
        {
          "internalType": "bool",
          "name": "",
          "type": "bool"
        }
      ],
      "stateMutability": "view",
      "type": "function"
    },
    {
      "inputs": [
        {
          "internalType": "bytes32",
          "name": "id",
          "type": "bytes32"
        },
        {
          "internalType": "uint128",
          "name": "sourceChain",
          "type": "uint128"
        },
        {
          "internalType": "bytes32",
          "name": "source",
          "type": "bytes32"
        },
        {
          "internalType": "bytes",
          "name": "payload",
          "type": "bytes"
        }
      ],
      "name": "onGmpReceived",
      "outputs": [
        {
          "internalType": "bytes32",
          "name": "",
          "type": "bytes32"
        }
      ],
      "stateMutability": "payable",
      "type": "function"
    },
    {
      "inputs": [],
      "name": "owner",
      "outputs": [
        {
          "internalType": "address",
          "name": "",
          "type": "address"
        }
      ],
      "stateMutability": "view",
      "type": "function"
    },
    {
      "inputs": [],
      "name": "pause",
      "outputs": [],
      "stateMutability": "nonpayable",
      "type": "function"
    },
    {
      "inputs": [],
      "name": "paused",
      "outputs": [
        {
          "internalType": "bool",
          "name": "",
          "type": "bool"
        }
      ],
      "stateMutability": "view",
      "type": "function"
    },
    {
      "inputs": [
        {
          "internalType": "address",
          "name": "vault",
          "type": "address"
        }
      ],
      "name": "registerVault",
      "outputs": [],
      "stateMutability": "nonpayable",
      "type": "function"
    },
    {
      "inputs": [
        {
          "internalType": "address",
          "name": "token",
          "type": "address"
        }
      ],
      "name": "removeVault",
      "outputs": [],
      "stateMutability": "nonpayable",
      "type": "function"
    },
    {
      "inputs": [],
      "name": "renounceOwnership",
      "outputs": [],
      "stateMutability": "nonpayable",
      "type": "function"
    },
    {
      "inputs": [
        {
          "internalType": "address",
          "name": "token",
          "type": "address"
        },
        {
          "internalType": "uint256",
          "name": "amount",
          "type": "uint256"
        },
        {
          "internalType": "address",
          "name": "receiver",
          "type": "address"
        },
        {
          "internalType": "uint16",
          "name": "destinationChain",
          "type": "uint16"
        },
        {
          "internalType": "address",
          "name": "destinationContract",
          "type": "address"
        },
        {
          "internalType": "bytes",
          "name": "params",
          "type": "bytes"
        }
      ],
      "name": "requestCrossChainLiquidity",
      "outputs": [],
      "stateMutability": "payable",
      "type": "function"
    },
    {
      "inputs": [
        {
          "internalType": "address",
          "name": "token",
          "type": "address"
        },
        {
          "internalType": "uint256",
          "name": "amount",
          "type": "uint256"
        },
        {
          "internalType": "address",
          "name": "receiver",
          "type": "address"
        },
        {
          "internalType": "uint16",
          "name": "destinationChain",
          "type": "uint16"
        },
        {
          "internalType": "address",
          "name": "destinationContract",
          "type": "address"
        },
        {
          "internalType": "bytes",
          "name": "params",
          "type": "bytes"
        }
      ],
      "name": "requestCrossChainLiquidityCost",
      "outputs": [
        {
          "internalType": "uint256",
          "name": "",
          "type": "uint256"
        }
      ],
      "stateMutability": "view",
      "type": "function"
    },
    {
      "inputs": [
        {
          "internalType": "address",
          "name": "",
          "type": "address"
        }
      ],
      "name": "tokenToVault",
      "outputs": [
        {
          "internalType": "address",
          "name": "",
          "type": "address"
        }
      ],
      "stateMutability": "view",
      "type": "function"
    },
    {
      "inputs": [
        {
          "internalType": "address",
          "name": "newOwner",
          "type": "address"
        }
      ],
      "name": "transferOwnership",
      "outputs": [],
      "stateMutability": "nonpayable",
      "type": "function"
    },
    {
      "inputs": [],
      "name": "unpause",
      "outputs": [],
      "stateMutability": "nonpayable",
      "type": "function"
    }
  ],
  "bytecode": "0x60a060405234801561001057600080fd5b506040516129b73803806129b783398181016040528101906100329190610238565b3360016000819055506000600160006101000a81548160ff021916908315150217905550600073ffffffffffffffffffffffffffffffffffffffff168173ffffffffffffffffffffffffffffffffffffffff16036100c85760006040517f1e4fbdf70000000000000000000000000000000000000000000000000000000081526004016100bf9190610274565b60405180910390fd5b6100d78161011260201b60201c565b508073ffffffffffffffffffffffffffffffffffffffff1660808173ffffffffffffffffffffffffffffffffffffffff16815250505061028f565b600060018054906101000a900473ffffffffffffffffffffffffffffffffffffffff169050816001806101000a81548173ffffffffffffffffffffffffffffffffffffffff021916908373ffffffffffffffffffffffffffffffffffffffff1602179055508173ffffffffffffffffffffffffffffffffffffffff168173ffffffffffffffffffffffffffffffffffffffff167f8be0079c531659141344cd1fd0a4f28419497f9722a3daafe3b4186f6b6457e060405160405180910390a35050565b600080fd5b600073ffffffffffffffffffffffffffffffffffffffff82169050919050565b6000610205826101da565b9050919050565b610215816101fa565b811461022057600080fd5b50565b6000815190506102328161020c565b92915050565b60006020828403121561024e5761024d6101d5565b5b600061025c84828501610223565b91505092915050565b61026e816101fa565b82525050565b60006020820190506102896000830184610265565b92915050565b6080516126f86102bf60003960008181610af601528181610bdd01528181610d9a015261126c01526126f86000f3fe6080604052600436106100fe5760003560e01c80633f4ba83a116100955780638456cb59116100645780638456cb59146103095780638da5cb5b14610320578063a41277201461034b578063ceb68c2314610388578063f2fde38b146103b1576100fe565b80633f4ba83a146102875780635c975abb1461029e57806367ccd1cb146102c9578063715018a6146102f2576100fe565b80630d453efb116100d15780630d453efb146101b7578063116191b6146101f457806329c206b81461021f5780633369c6381461024a576100fe565b806301900937146101035780630b4501fd146101335780630c7e17251461015e5780630ce72cf21461019b575b600080fd5b61011d600480360381019061011891906118bc565b6103da565b60405161012a9190611953565b60405180910390f35b34801561013f57600080fd5b50610148610905565b6040516101559190611987565b60405180910390f35b34801561016a57600080fd5b5061018560048036038101906101809190611a00565b61090a565b6040516101929190611a3c565b60405180910390f35b6101b560048036038101906101b09190611abd565b61093d565b005b3480156101c357600080fd5b506101de60048036038101906101d99190611a00565b610d00565b6040516101eb9190611b87565b60405180910390f35b34801561020057600080fd5b50610209610d98565b6040516102169190611c01565b60405180910390f35b34801561022b57600080fd5b50610234610dbc565b6040516102419190611987565b60405180910390f35b34801561025657600080fd5b50610271600480360381019061026c9190611abd565b610dc3565b60405161027e9190611cac565b60405180910390f35b34801561029357600080fd5b5061029c610e8e565b005b3480156102aa57600080fd5b506102b3610ea0565b6040516102c09190611b87565b60405180910390f35b3480156102d557600080fd5b506102f060048036038101906102eb9190611a00565b610eb7565b005b3480156102fe57600080fd5b50610307611160565b005b34801561031557600080fd5b5061031e611174565b005b34801561032c57600080fd5b50610335611186565b6040516103429190611a3c565b60405180910390f35b34801561035757600080fd5b50610372600480360381019061036d9190611abd565b6111ae565b60405161037f9190611987565b60405180910390f35b34801561039457600080fd5b506103af60048036038101906103aa9190611a00565b61131c565b005b3480156103bd57600080fd5b506103d860048036038101906103d39190611a00565b611457565b005b60008083838101906103ec9190611e9c565b9050600060026000836000015173ffffffffffffffffffffffffffffffffffffffff1673ffffffffffffffffffffffffffffffffffffffff16815260200190815260200160002060009054906101000a900473ffffffffffffffffffffffffffffffffffffffff169050600073ffffffffffffffffffffffffffffffffffffffff168173ffffffffffffffffffffffffffffffffffffffff16036104c5576040517f08c379a00000000000000000000000000000000000000000000000000000000081526004016104bc90611f42565b60405180910390fd5b6000612710601e84602001516104db9190611f91565b6104e59190612002565b905060008360000151905060008173ffffffffffffffffffffffffffffffffffffffff166370a08231856040518263ffffffff1660e01b815260040161052b9190611a3c565b602060405180830381865afa158015610548573d6000803e3d6000fd5b505050506040513d601f19601f8201168201806040525081019061056c9190612048565b90508373ffffffffffffffffffffffffffffffffffffffff16639ad8f92f866040015187602001516040518363ffffffff1660e01b81526004016105b1929190612075565b600060405180830381600087803b1580156105cb57600080fd5b505af11580156105df573d6000803e3d6000fd5b50505050846040015173ffffffffffffffffffffffffffffffffffffffff16631b11d0ff8660000151876020015186328a606001516040518663ffffffff1660e01b815260040161063495949392919061209e565b6020604051808303816000875af1158015610653573d6000803e3d6000fd5b505050506040513d601f19601f820116820180604052508101906106779190612124565b6106b6576040517f08c379a00000000000000000000000000000000000000000000000000000000081526004016106ad9061219d565b60405180910390fd5b8173ffffffffffffffffffffffffffffffffffffffff1663a9059cbb858473ffffffffffffffffffffffffffffffffffffffff166370a08231306040518263ffffffff1660e01b815260040161070c9190611a3c565b602060405180830381865afa158015610729573d6000803e3d6000fd5b505050506040513d601f19601f8201168201806040525081019061074d9190612048565b6040518363ffffffff1660e01b815260040161076a929190612075565b6020604051808303816000875af1158015610789573d6000803e3d6000fd5b505050506040513d601f19601f820116820180604052508101906107ad9190612124565b5060008273ffffffffffffffffffffffffffffffffffffffff166370a08231866040518263ffffffff1660e01b81526004016107e99190611a3c565b602060405180830381865afa158015610806573d6000803e3d6000fd5b505050506040513d601f19601f8201168201806040525081019061082a9190612048565b9050838261083891906121bd565b81101561087a576040517f08c379a00000000000000000000000000000000000000000000000000000000081526004016108719061223d565b60405180910390fd5b856000015173ffffffffffffffffffffffffffffffffffffffff16866040015173ffffffffffffffffffffffffffffffffffffffff168d7fd8d8a3b3f53ff78ed6a3090f5b7bcb37f12f64a644f99d478c3c6ca3f81d54648e8a60200151896040516108e89392919061226c565b60405180910390a46000801b965050505050505095945050505050565b601e81565b60026020528060005260406000206000915054906101000a900473ffffffffffffffffffffffffffffffffffffffff1681565b6109456114dd565b61094d611523565b600073ffffffffffffffffffffffffffffffffffffffff16600260008973ffffffffffffffffffffffffffffffffffffffff1673ffffffffffffffffffffffffffffffffffffffff16815260200190815260200160002060009054906101000a900473ffffffffffffffffffffffffffffffffffffffff1673ffffffffffffffffffffffffffffffffffffffff1603610a1b576040517f08c379a0000000000000000000000000000000000000000000000000000000008152600401610a1290611f42565b60405180910390fd5b6000612710601e88610a2d9190611f91565b610a379190612002565b9050600060405180608001604052808a73ffffffffffffffffffffffffffffffffffffffff1681526020018981526020018873ffffffffffffffffffffffffffffffffffffffff16815260200185858080601f016020809104026020016040519081016040528093929190818152602001838380828437600081840152601f19601f820116905080830192505050505050508152509050600081604051602001610ae1919061236e565b604051602081830303815290604052905060007f000000000000000000000000000000000000000000000000000000000000000073ffffffffffffffffffffffffffffffffffffffff166398608e25898451620cf8506040518463ffffffff1660e01b8152600401610b559392919061239f565b602060405180830381865afa158015610b72573d6000803e3d6000fd5b505050506040513d601f19601f82011682018060405250810190610b969190612048565b905080341015610bdb576040517f08c379a0000000000000000000000000000000000000000000000000000000008152600401610bd290612422565b60405180910390fd5b7f000000000000000000000000000000000000000000000000000000000000000073ffffffffffffffffffffffffffffffffffffffff1663a7ef4ebd34898b620cf850876040518663ffffffff1660e01b8152600401610c3e9493929190612442565b60206040518083038185885af1158015610c5c573d6000803e3d6000fd5b50505050506040513d601f19601f82011682018060405250810190610c8191906124a3565b508a73ffffffffffffffffffffffffffffffffffffffff168973ffffffffffffffffffffffffffffffffffffffff167f8391e2c4de79e78462e0ad42703a9e6f8e695967bbf75ba4c74eaf9c5c0e76b88a8d88604051610ce39392919061239f565b60405180910390a350505050610cf7611564565b50505050505050565b60008073ffffffffffffffffffffffffffffffffffffffff16600260008473ffffffffffffffffffffffffffffffffffffffff1673ffffffffffffffffffffffffffffffffffffffff16815260200190815260200160002060009054906101000a900473ffffffffffffffffffffffffffffffffffffffff1673ffffffffffffffffffffffffffffffffffffffff1614159050919050565b7f000000000000000000000000000000000000000000000000000000000000000081565b620cf85081565b6060600060405180608001604052808a73ffffffffffffffffffffffffffffffffffffffff1681526020018981526020018873ffffffffffffffffffffffffffffffffffffffff16815260200185858080601f016020809104026020016040519081016040528093929190818152602001838380828437600081840152601f19601f820116905080830192505050505050508152509050600081604051602001610e6d919061236e565b60405160208183030381529060405290508092505050979650505050505050565b610e9661156e565b610e9e6115f5565b565b6000600160009054906101000a900460ff16905090565b610ebf61156e565b600073ffffffffffffffffffffffffffffffffffffffff168173ffffffffffffffffffffffffffffffffffffffff1603610f2e576040517f08c379a0000000000000000000000000000000000000000000000000000000008152600401610f259061251c565b60405180910390fd5b60008173ffffffffffffffffffffffffffffffffffffffff166338d52e0f6040518163ffffffff1660e01b8152600401602060405180830381865afa158015610f7b573d6000803e3d6000fd5b505050506040513d601f19601f82011682018060405250810190610f9f9190612551565b9050600073ffffffffffffffffffffffffffffffffffffffff168173ffffffffffffffffffffffffffffffffffffffff1603611010576040517f08c379a0000000000000000000000000000000000000000000000000000000008152600401611007906125ca565b60405180910390fd5b600073ffffffffffffffffffffffffffffffffffffffff16600260008373ffffffffffffffffffffffffffffffffffffffff1673ffffffffffffffffffffffffffffffffffffffff16815260200190815260200160002060009054906101000a900473ffffffffffffffffffffffffffffffffffffffff1673ffffffffffffffffffffffffffffffffffffffff16146110de576040517f08c379a00000000000000000000000000000000000000000000000000000000081526004016110d590612636565b60405180910390fd5b81600260008373ffffffffffffffffffffffffffffffffffffffff1673ffffffffffffffffffffffffffffffffffffffff16815260200190815260200160002060006101000a81548173ffffffffffffffffffffffffffffffffffffffff021916908373ffffffffffffffffffffffffffffffffffffffff1602179055505050565b61116861156e565b6111726000611658565b565b61117c61156e565b61118461171b565b565b600060018054906101000a900473ffffffffffffffffffffffffffffffffffffffff16905090565b60008060405180608001604052808a73ffffffffffffffffffffffffffffffffffffffff1681526020018981526020018873ffffffffffffffffffffffffffffffffffffffff16815260200185858080601f016020809104026020016040519081016040528093929190818152602001838380828437600081840152601f19601f820116905080830192505050505050508152509050600081604051602001611257919061236e565b604051602081830303815290604052905060007f000000000000000000000000000000000000000000000000000000000000000073ffffffffffffffffffffffffffffffffffffffff166398608e25898451620cf8506040518463ffffffff1660e01b81526004016112cb9392919061239f565b602060405180830381865afa1580156112e8573d6000803e3d6000fd5b505050506040513d601f19601f8201168201806040525081019061130c9190612048565b9050505050979650505050505050565b61132461156e565b600073ffffffffffffffffffffffffffffffffffffffff16600260008373ffffffffffffffffffffffffffffffffffffffff1673ffffffffffffffffffffffffffffffffffffffff16815260200190815260200160002060009054906101000a900473ffffffffffffffffffffffffffffffffffffffff1673ffffffffffffffffffffffffffffffffffffffff16036113f2576040517f08c379a00000000000000000000000000000000000000000000000000000000081526004016113e9906126a2565b60405180910390fd5b600260008273ffffffffffffffffffffffffffffffffffffffff1673ffffffffffffffffffffffffffffffffffffffff16815260200190815260200160002060006101000a81549073ffffffffffffffffffffffffffffffffffffffff021916905550565b61145f61156e565b600073ffffffffffffffffffffffffffffffffffffffff168173ffffffffffffffffffffffffffffffffffffffff16036114d15760006040517f1e4fbdf70000000000000000000000000000000000000000000000000000000081526004016114c89190611a3c565b60405180910390fd5b6114da81611658565b50565b600260005403611519576040517f3ee5aeb500000000000000000000000000000000000000000000000000000000815260040160405180910390fd5b6002600081905550565b61152b610ea0565b15611562576040517fd93c066500000000000000000000000000000000000000000000000000000000815260040160405180910390fd5b565b6001600081905550565b61157661177d565b73ffffffffffffffffffffffffffffffffffffffff16611594611186565b73ffffffffffffffffffffffffffffffffffffffff16146115f3576115b761177d565b6040517f118cdaa70000000000000000000000000000000000000000000000000000000081526004016115ea9190611a3c565b60405180910390fd5b565b6115fd611785565b6000600160006101000a81548160ff0219169083151502179055507f5db9ee0a495bf2e6ff9c91a7834c1ba4fdd244a5e8aa4e537bd38aeae4b073aa61164161177d565b60405161164e9190611a3c565b60405180910390a1565b600060018054906101000a900473ffffffffffffffffffffffffffffffffffffffff169050816001806101000a81548173ffffffffffffffffffffffffffffffffffffffff021916908373ffffffffffffffffffffffffffffffffffffffff1602179055508173ffffffffffffffffffffffffffffffffffffffff168173ffffffffffffffffffffffffffffffffffffffff167f8be0079c531659141344cd1fd0a4f28419497f9722a3daafe3b4186f6b6457e060405160405180910390a35050565b611723611523565b60018060006101000a81548160ff0219169083151502179055507f62e78cea01bee320cd4e420270b5ea74000d11b0c9f74754ebdbfc544b05a25861176661177d565b6040516117739190611a3c565b60405180910390a1565b600033905090565b61178d610ea0565b6117c3576040517f8dfc202b00000000000000000000000000000000000000000000000000000000815260040160405180910390fd5b565b6000604051905090565b600080fd5b600080fd5b6000819050919050565b6117ec816117d9565b81146117f757600080fd5b50565b600081359050611809816117e3565b92915050565b60006fffffffffffffffffffffffffffffffff82169050919050565b6118348161180f565b811461183f57600080fd5b50565b6000813590506118518161182b565b92915050565b600080fd5b600080fd5b600080fd5b60008083601f84011261187c5761187b611857565b5b8235905067ffffffffffffffff8111156118995761189861185c565b5b6020830191508360018202830111156118b5576118b4611861565b5b9250929050565b6000806000806000608086880312156118d8576118d76117cf565b5b60006118e6888289016117fa565b95505060206118f788828901611842565b9450506040611908888289016117fa565b935050606086013567ffffffffffffffff811115611929576119286117d4565b5b61193588828901611866565b92509250509295509295909350565b61194d816117d9565b82525050565b60006020820190506119686000830184611944565b92915050565b6000819050919050565b6119818161196e565b82525050565b600060208201905061199c6000830184611978565b92915050565b600073ffffffffffffffffffffffffffffffffffffffff82169050919050565b60006119cd826119a2565b9050919050565b6119dd816119c2565b81146119e857600080fd5b50565b6000813590506119fa816119d4565b92915050565b600060208284031215611a1657611a156117cf565b5b6000611a24848285016119eb565b91505092915050565b611a36816119c2565b82525050565b6000602082019050611a516000830184611a2d565b92915050565b611a608161196e565b8114611a6b57600080fd5b50565b600081359050611a7d81611a57565b92915050565b600061ffff82169050919050565b611a9a81611a83565b8114611aa557600080fd5b50565b600081359050611ab781611a91565b92915050565b600080600080600080600060c0888a031215611adc57611adb6117cf565b5b6000611aea8a828b016119eb565b9750506020611afb8a828b01611a6e565b9650506040611b0c8a828b016119eb565b9550506060611b1d8a828b01611aa8565b9450506080611b2e8a828b016119eb565b93505060a088013567ffffffffffffffff811115611b4f57611b4e6117d4565b5b611b5b8a828b01611866565b925092505092959891949750929550565b60008115159050919050565b611b8181611b6c565b82525050565b6000602082019050611b9c6000830184611b78565b92915050565b6000819050919050565b6000611bc7611bc2611bbd846119a2565b611ba2565b6119a2565b9050919050565b6000611bd982611bac565b9050919050565b6000611beb82611bce565b9050919050565b611bfb81611be0565b82525050565b6000602082019050611c166000830184611bf2565b92915050565b600081519050919050565b600082825260208201905092915050565b60005b83811015611c56578082015181840152602081019050611c3b565b60008484015250505050565b6000601f19601f8301169050919050565b6000611c7e82611c1c565b611c888185611c27565b9350611c98818560208601611c38565b611ca181611c62565b840191505092915050565b60006020820190508181036000830152611cc68184611c73565b905092915050565b600080fd5b7f4e487b7100000000000000000000000000000000000000000000000000000000600052604160045260246000fd5b611d0b82611c62565b810181811067ffffffffffffffff82111715611d2a57611d29611cd3565b5b80604052505050565b6000611d3d6117c5565b9050611d498282611d02565b919050565b600080fd5b600080fd5b600067ffffffffffffffff821115611d7357611d72611cd3565b5b611d7c82611c62565b9050602081019050919050565b82818337600083830152505050565b6000611dab611da684611d58565b611d33565b905082815260208101848484011115611dc757611dc6611d53565b5b611dd2848285611d89565b509392505050565b600082601f830112611def57611dee611857565b5b8135611dff848260208601611d98565b91505092915050565b600060808284031215611e1e57611e1d611cce565b5b611e286080611d33565b90506000611e38848285016119eb565b6000830152506020611e4c84828501611a6e565b6020830152506040611e60848285016119eb565b604083015250606082013567ffffffffffffffff811115611e8457611e83611d4e565b5b611e9084828501611dda565b60608301525092915050565b600060208284031215611eb257611eb16117cf565b5b600082013567ffffffffffffffff811115611ed057611ecf6117d4565b5b611edc84828501611e08565b91505092915050565b600082825260208201905092915050565b7f4e6f207661756c7420666f7220746f6b656e0000000000000000000000000000600082015250565b6000611f2c601283611ee5565b9150611f3782611ef6565b602082019050919050565b60006020820190508181036000830152611f5b81611f1f565b9050919050565b7f4e487b7100000000000000000000000000000000000000000000000000000000600052601160045260246000fd5b6000611f9c8261196e565b9150611fa78361196e565b9250828202611fb58161196e565b91508282048414831517611fcc57611fcb611f62565b5b5092915050565b7f4e487b7100000000000000000000000000000000000000000000000000000000600052601260045260246000fd5b600061200d8261196e565b91506120188361196e565b92508261202857612027611fd3565b5b828204905092915050565b60008151905061204281611a57565b92915050565b60006020828403121561205e5761205d6117cf565b5b600061206c84828501612033565b91505092915050565b600060408201905061208a6000830185611a2d565b6120976020830184611978565b9392505050565b600060a0820190506120b36000830188611a2d565b6120c06020830187611978565b6120cd6040830186611978565b6120da6060830185611a2d565b81810360808301526120ec8184611c73565b90509695505050505050565b61210181611b6c565b811461210c57600080fd5b50565b60008151905061211e816120f8565b92915050565b60006020828403121561213a576121396117cf565b5b60006121488482850161210f565b91505092915050565b7f496e76616c6964206f7065726174696f6e20657865637574696f6e0000000000600082015250565b6000612187601b83611ee5565b915061219282612151565b602082019050919050565b600060208201905081810360008301526121b68161217a565b9050919050565b60006121c88261196e565b91506121d38361196e565b92508282019050808211156121eb576121ea611f62565b5b92915050565b7f4c6971756964697479206e6f7420726570616964207769746820666565000000600082015250565b6000612227601d83611ee5565b9150612232826121f1565b602082019050919050565b600060208201905081810360008301526122568161221a565b9050919050565b6122668161180f565b82525050565b6000606082019050612281600083018661225d565b61228e6020830185611978565b61229b6040830184611978565b949350505050565b6122ac816119c2565b82525050565b6122bb8161196e565b82525050565b600082825260208201905092915050565b60006122dd82611c1c565b6122e781856122c1565b93506122f7818560208601611c38565b61230081611c62565b840191505092915050565b600060808301600083015161232360008601826122a3565b50602083015161233660208601826122b2565b50604083015161234960408601826122a3565b506060830151848203606086015261236182826122d2565b9150508091505092915050565b60006020820190508181036000830152612388818461230b565b905092915050565b61239981611a83565b82525050565b60006060820190506123b46000830186612390565b6123c16020830185611978565b6123ce6040830184611978565b949350505050565b7f496e73756666696369656e7420474d5020666565000000000000000000000000600082015250565b600061240c601483611ee5565b9150612417826123d6565b602082019050919050565b6000602082019050818103600083015261243b816123ff565b9050919050565b60006080820190506124576000830187611a2d565b6124646020830186612390565b6124716040830185611978565b81810360608301526124838184611c73565b905095945050505050565b60008151905061249d816117e3565b92915050565b6000602082840312156124b9576124b86117cf565b5b60006124c78482850161248e565b91505092915050565b7f496e76616c6964207661756c7420616464726573730000000000000000000000600082015250565b6000612506601583611ee5565b9150612511826124d0565b602082019050919050565b60006020820190508181036000830152612535816124f9565b9050919050565b60008151905061254b816119d4565b92915050565b600060208284031215612567576125666117cf565b5b60006125758482850161253c565b91505092915050565b7f496e76616c696420756e6465726c79696e6720746f6b656e0000000000000000600082015250565b60006125b4601883611ee5565b91506125bf8261257e565b602082019050919050565b600060208201905081810360008301526125e3816125a7565b9050919050565b7f546f6b656e20616c7265616479206861732061207661756c7400000000000000600082015250565b6000612620601983611ee5565b915061262b826125ea565b602082019050919050565b6000602082019050818103600083015261264f81612613565b9050919050565b7f4e6f207661756c74207265676973746572656420666f7220746f6b656e000000600082015250565b600061268c601d83611ee5565b915061269782612656565b602082019050919050565b600060208201905081810360008301526126bb8161267f565b905091905056fea2646970667358221220e80b021ffb2b8fd8dfd74ec1d8ce3082acb8ea8e88bfc29caef41189cd612cd764736f6c634300081c0033",
  "linkReferences": {},
  "deployedLinkReferences": {}
}