{
  "_format": "hh-sol-artifact-1",
  "contractName": "RECEIVER",
  "sourceName": "contracts/LIQUIDITYRECEIVER.sol",
  "abi": [
    {
      "inputs": [
        {
          "internalType": "address",
          "name": "asset",
          "type": "address"
        },
        {
          "internalType": "uint256",
          "name": "amount",
          "type": "uint256"
        },
        {
          "internalType": "uint256",
          "name": "premium",
          "type": "uint256"
        },
        {
          "internalType": "address",
          "name": "initiator",
          "type": "address"
        },
        {
          "internalType": "bytes",
          "name": "params",
          "type": "bytes"
        }
      ],
      "name": "executeOperation",
      "outputs": [
        {
          "internalType": "bool",
          "name": "",
          "type": "bool"
        }
      ],
      "stateMutability": "nonpayable",
      "type": "function"
    }
  ],
  "bytecode": "0x6080604052348015600f57600080fd5b506104068061001f6000396000f3fe608060405234801561001057600080fd5b506004361061002b5760003560e01c80631b11d0ff14610030575b600080fd5b61004a600480360381019061004591906101fd565b610060565b60405161005791906102b2565b60405180910390f35b60008673ffffffffffffffffffffffffffffffffffffffff1663a9059cbb33888861008b91906102fc565b6040518363ffffffff1660e01b81526004016100a892919061034e565b6020604051808303816000875af11580156100c7573d6000803e3d6000fd5b505050506040513d601f19601f820116820180604052508101906100eb91906103a3565b50600190509695505050505050565b600080fd5b600080fd5b600073ffffffffffffffffffffffffffffffffffffffff82169050919050565b600061012f82610104565b9050919050565b61013f81610124565b811461014a57600080fd5b50565b60008135905061015c81610136565b92915050565b6000819050919050565b61017581610162565b811461018057600080fd5b50565b6000813590506101928161016c565b92915050565b600080fd5b600080fd5b600080fd5b60008083601f8401126101bd576101bc610198565b5b8235905067ffffffffffffffff8111156101da576101d961019d565b5b6020830191508360018202830111156101f6576101f56101a2565b5b9250929050565b60008060008060008060a0878903121561021a576102196100fa565b5b600061022889828a0161014d565b965050602061023989828a01610183565b955050604061024a89828a01610183565b945050606061025b89828a0161014d565b935050608087013567ffffffffffffffff81111561027c5761027b6100ff565b5b61028889828a016101a7565b92509250509295509295509295565b60008115159050919050565b6102ac81610297565b82525050565b60006020820190506102c760008301846102a3565b92915050565b7f4e487b7100000000000000000000000000000000000000000000000000000000600052601160045260246000fd5b600061030782610162565b915061031283610162565b925082820190508082111561032a576103296102cd565b5b92915050565b61033981610124565b82525050565b61034881610162565b82525050565b60006040820190506103636000830185610330565b610370602083018461033f565b9392505050565b61038081610297565b811461038b57600080fd5b50565b60008151905061039d81610377565b92915050565b6000602082840312156103b9576103b86100fa565b5b60006103c78482850161038e565b9150509291505056fea2646970667358221220bae62d4e5eb2c054c1c8fe674b08bd82b3ad2cae6248729604274b35ff0e453564736f6c634300081c0033",
  "linkReferences": {},
  "deployedLinkReferences": {}
}