{
  "_format": "hh-sol-artifact-1",
  "contractName": "Counter",
  "sourceName": "contracts/Counter.sol",
  "abi": [
    {
      "inputs": [],
      "stateMutability": "nonpayable",
      "type": "constructor"
    },
    {
      "inputs": [],
      "name": "ANS",
      "outputs": [
        {
          "internalType": "string",
          "name": "",
          "type": "string"
        }
      ],
      "stateMutability": "view",
      "type": "function"
    },
    {
      "inputs": [],
      "name": "_gateway",
      "outputs": [
        {
          "internalType": "contract IGateway",
          "name": "",
          "type": "address"
        }
      ],
      "stateMutability": "view",
      "type": "function"
    },
    {
      "inputs": [],
      "name": "number",
      "outputs": [
        {
          "internalType": "uint256",
          "name": "",
          "type": "uint256"
        }
      ],
      "stateMutability": "view",
      "type": "function"
    },
    {
      "inputs": [
        {
          "internalType": "bytes32",
          "name": "",
          "type": "bytes32"
        },
        {
          "internalType": "uint128",
          "name": "",
          "type": "uint128"
        },
        {
          "internalType": "bytes32",
          "name": "",
          "type": "bytes32"
        },
        {
          "internalType": "bytes",
          "name": "data",
          "type": "bytes"
        }
      ],
      "name": "onGmpReceived",
      "outputs": [
        {
          "internalType": "bytes32",
          "name": "",
          "type": "bytes32"
        }
      ],
      "stateMutability": "payable",
      "type": "function"
    },
    {
      "inputs": [],
      "name": "teleport",
      "outputs": [
        {
          "internalType": "bytes32",
          "name": "messageID",
          "type": "bytes32"
        }
      ],
      "stateMutability": "payable",
      "type": "function"
    },
    {
      "inputs": [],
      "name": "teleportCost",
      "outputs": [
        {
          "internalType": "uint256",
          "name": "deposit",
          "type": "uint256"
        }
      ],
      "stateMutability": "view",
      "type": "function"
    }
  ],
  "bytecode": "0x60806040526f7f56768de3133034fa730a909003a1656000806101000a81548173ffffffffffffffffffffffffffffffffffffffff021916908373ffffffffffffffffffffffffffffffffffffffff160217905550348015605f57600080fd5b50610e988061006f6000396000f3fe6080604052600436106100555760003560e01c8063019009371461005a578063724a02381461008a57806381b47229146100b55780638381f58a146100e0578063d86b75c71461010b578063e0eb426114610129575b600080fd5b610074600480360381019061006f91906104e8565b610154565b604051610081919061057f565b60405180910390f35b34801561009657600080fd5b5061009f61019d565b6040516100ac91906105b3565b60405180910390f35b3480156100c157600080fd5b506100ca610269565b6040516100d7919061064d565b60405180910390f35b3480156100ec57600080fd5b506100f561028d565b60405161010291906105b3565b60405180910390f35b610113610293565b604051610120919061057f565b60405180910390f35b34801561013557600080fd5b5061013e610363565b60405161014b91906106f8565b60405180910390f35b60006001600081548092919061016990610749565b9190505550828281019061017d91906108c1565b6002908161018b9190610b0c565b5060015460001b905095945050505050565b6000806040516020016101af90610c2a565b604051602081830303815290604052905060008054906101000a900473ffffffffffffffffffffffffffffffffffffffff1673ffffffffffffffffffffffffffffffffffffffff166398608e25600a8351620cf8506040518463ffffffff1660e01b815260040161022293929190610cce565b602060405180830381865afa15801561023f573d6000803e3d6000fd5b505050506040513d601f19601f820116820180604052508101906102639190610d31565b91505090565b60008054906101000a900473ffffffffffffffffffffffffffffffffffffffff1681565b60015481565b6000806040516020016102a590610c2a565b604051602081830303815290604052905060008054906101000a900473ffffffffffffffffffffffffffffffffffffffff1673ffffffffffffffffffffffffffffffffffffffff1663a7ef4ebd3430600a620cf850866040518663ffffffff1660e01b815260040161031a9493929190610dd4565b60206040518083038185885af1158015610338573d6000803e3d6000fd5b50505050506040513d601f19601f8201168201806040525081019061035d9190610e35565b91505090565b6002805461037090610939565b80601f016020809104026020016040519081016040528092919081815260200182805461039c90610939565b80156103e95780601f106103be576101008083540402835291602001916103e9565b820191906000526020600020905b8154815290600101906020018083116103cc57829003601f168201915b505050505081565b6000604051905090565b600080fd5b600080fd5b6000819050919050565b61041881610405565b811461042357600080fd5b50565b6000813590506104358161040f565b92915050565b60006fffffffffffffffffffffffffffffffff82169050919050565b6104608161043b565b811461046b57600080fd5b50565b60008135905061047d81610457565b92915050565b600080fd5b600080fd5b600080fd5b60008083601f8401126104a8576104a7610483565b5b8235905067ffffffffffffffff8111156104c5576104c4610488565b5b6020830191508360018202830111156104e1576104e061048d565b5b9250929050565b600080600080600060808688031215610504576105036103fb565b5b600061051288828901610426565b95505060206105238882890161046e565b945050604061053488828901610426565b935050606086013567ffffffffffffffff81111561055557610554610400565b5b61056188828901610492565b92509250509295509295909350565b61057981610405565b82525050565b60006020820190506105946000830184610570565b92915050565b6000819050919050565b6105ad8161059a565b82525050565b60006020820190506105c860008301846105a4565b92915050565b600073ffffffffffffffffffffffffffffffffffffffff82169050919050565b6000819050919050565b600061061361060e610609846105ce565b6105ee565b6105ce565b9050919050565b6000610625826105f8565b9050919050565b60006106378261061a565b9050919050565b6106478161062c565b82525050565b6000602082019050610662600083018461063e565b92915050565b600081519050919050565b600082825260208201905092915050565b60005b838110156106a2578082015181840152602081019050610687565b60008484015250505050565b6000601f19601f8301169050919050565b60006106ca82610668565b6106d48185610673565b93506106e4818560208601610684565b6106ed816106ae565b840191505092915050565b6000602082019050818103600083015261071281846106bf565b905092915050565b7f4e487b7100000000000000000000000000000000000000000000000000000000600052601160045260246000fd5b60006107548261059a565b91507fffffffffffffffffffffffffffffffffffffffffffffffffffffffffffffffff82036107865761078561071a565b5b600182019050919050565b600080fd5b7f4e487b7100000000000000000000000000000000000000000000000000000000600052604160045260246000fd5b6107ce826106ae565b810181811067ffffffffffffffff821117156107ed576107ec610796565b5b80604052505050565b60006108006103f1565b905061080c82826107c5565b919050565b600067ffffffffffffffff82111561082c5761082b610796565b5b610835826106ae565b9050602081019050919050565b82818337600083830152505050565b600061086461085f84610811565b6107f6565b9050828152602081018484840111156108805761087f610791565b5b61088b848285610842565b509392505050565b600082601f8301126108a8576108a7610483565b5b81356108b8848260208601610851565b91505092915050565b6000602082840312156108d7576108d66103fb565b5b600082013567ffffffffffffffff8111156108f5576108f4610400565b5b61090184828501610893565b91505092915050565b7f4e487b7100000000000000000000000000000000000000000000000000000000600052602260045260246000fd5b6000600282049050600182168061095157607f821691505b6020821081036109645761096361090a565b5b50919050565b60008190508160005260206000209050919050565b60006020601f8301049050919050565b600082821b905092915050565b6000600883026109cc7fffffffffffffffffffffffffffffffffffffffffffffffffffffffffffffffff8261098f565b6109d6868361098f565b95508019841693508086168417925050509392505050565b6000610a09610a046109ff8461059a565b6105ee565b61059a565b9050919050565b6000819050919050565b610a23836109ee565b610a37610a2f82610a10565b84845461099c565b825550505050565b600090565b610a4c610a3f565b610a57818484610a1a565b505050565b5b81811015610a7b57610a70600082610a44565b600181019050610a5d565b5050565b601f821115610ac057610a918161096a565b610a9a8461097f565b81016020851015610aa9578190505b610abd610ab58561097f565b830182610a5c565b50505b505050565b600082821c905092915050565b6000610ae360001984600802610ac5565b1980831691505092915050565b6000610afc8383610ad2565b9150826002028217905092915050565b610b1582610668565b67ffffffffffffffff811115610b2e57610b2d610796565b5b610b388254610939565b610b43828285610a7f565b600060209050601f831160018114610b765760008415610b64578287015190505b610b6e8582610af0565b865550610bd6565b601f198416610b848661096a565b60005b82811015610bac57848901518255600182019150602085019450602081019050610b87565b86831015610bc95784890151610bc5601f891682610ad2565b8355505b6001600288020188555050505b505050505050565b7f4865792069747320776f726b696e672021210000000000000000000000000000600082015250565b6000610c14601283610673565b9150610c1f82610bde565b602082019050919050565b60006020820190508181036000830152610c4381610c07565b9050919050565b6000819050919050565b600061ffff82169050919050565b6000610c7d610c78610c7384610c4a565b6105ee565b610c54565b9050919050565b610c8d81610c62565b82525050565b6000819050919050565b6000610cb8610cb3610cae84610c93565b6105ee565b61059a565b9050919050565b610cc881610c9d565b82525050565b6000606082019050610ce36000830186610c84565b610cf060208301856105a4565b610cfd6040830184610cbf565b949350505050565b610d0e8161059a565b8114610d1957600080fd5b50565b600081519050610d2b81610d05565b92915050565b600060208284031215610d4757610d466103fb565b5b6000610d5584828501610d1c565b91505092915050565b6000610d69826105ce565b9050919050565b610d7981610d5e565b82525050565b600081519050919050565b600082825260208201905092915050565b6000610da682610d7f565b610db08185610d8a565b9350610dc0818560208601610684565b610dc9816106ae565b840191505092915050565b6000608082019050610de96000830187610d70565b610df66020830186610c84565b610e036040830185610cbf565b8181036060830152610e158184610d9b565b905095945050505050565b600081519050610e2f8161040f565b92915050565b600060208284031215610e4b57610e4a6103fb565b5b6000610e5984828501610e20565b9150509291505056fea264697066735822122088b35662523683527dc74fa8795bade250490f68e98c898801dbb45ea461e5b264736f6c634300081c0033",
  "linkReferences": {},
  "deployedLinkReferences": {}
}